{
  "_format": "hh-sol-artifact-1",
  "contractName": "Web3Mint",
  "sourceName": "contracts/Web3Mint.sol",
  "abi": [
    {
      "inputs": [],
      "stateMutability": "nonpayable",
      "type": "constructor"
    },
    {
      "anonymous": false,
      "inputs": [
        {
          "indexed": true,
          "internalType": "address",
          "name": "owner",
          "type": "address"
        },
        {
          "indexed": true,
          "internalType": "address",
          "name": "approved",
          "type": "address"
        },
        {
          "indexed": true,
          "internalType": "uint256",
          "name": "tokenId",
          "type": "uint256"
        }
      ],
      "name": "Approval",
      "type": "event"
    },
    {
      "anonymous": false,
      "inputs": [
        {
          "indexed": true,
          "internalType": "address",
          "name": "owner",
          "type": "address"
        },
        {
          "indexed": true,
          "internalType": "address",
          "name": "operator",
          "type": "address"
        },
        {
          "indexed": false,
          "internalType": "bool",
          "name": "approved",
          "type": "bool"
        }
      ],
      "name": "ApprovalForAll",
      "type": "event"
    },
    {
      "anonymous": false,
      "inputs": [
        {
          "indexed": false,
          "internalType": "uint256",
          "name": "tokenId",
          "type": "uint256"
        }
      ],
      "name": "NewTotalMintCount",
      "type": "event"
    },
    {
      "anonymous": false,
      "inputs": [
        {
          "indexed": true,
          "internalType": "address",
          "name": "from",
          "type": "address"
        },
        {
          "indexed": true,
          "internalType": "address",
          "name": "to",
          "type": "address"
        },
        {
          "indexed": true,
          "internalType": "uint256",
          "name": "tokenId",
          "type": "uint256"
        }
      ],
      "name": "Transfer",
      "type": "event"
    },
    {
      "inputs": [
        {
          "internalType": "address",
          "name": "to",
          "type": "address"
        },
        {
          "internalType": "uint256",
          "name": "tokenId",
          "type": "uint256"
        }
      ],
      "name": "approve",
      "outputs": [],
      "stateMutability": "nonpayable",
      "type": "function"
    },
    {
      "inputs": [
        {
          "internalType": "address",
          "name": "owner",
          "type": "address"
        }
      ],
      "name": "balanceOf",
      "outputs": [
        {
          "internalType": "uint256",
          "name": "",
          "type": "uint256"
        }
      ],
      "stateMutability": "view",
      "type": "function"
    },
    {
      "inputs": [
        {
          "internalType": "uint256",
          "name": "tokenId",
          "type": "uint256"
        }
      ],
      "name": "getApproved",
      "outputs": [
        {
          "internalType": "address",
          "name": "",
          "type": "address"
        }
      ],
      "stateMutability": "view",
      "type": "function"
    },
    {
      "inputs": [],
      "name": "getTokenIds",
      "outputs": [
        {
          "internalType": "uint256",
          "name": "",
          "type": "uint256"
        }
      ],
      "stateMutability": "view",
      "type": "function"
    },
    {
      "inputs": [
        {
          "internalType": "address",
          "name": "owner",
          "type": "address"
        },
        {
          "internalType": "address",
          "name": "operator",
          "type": "address"
        }
      ],
      "name": "isApprovedForAll",
      "outputs": [
        {
          "internalType": "bool",
          "name": "",
          "type": "bool"
        }
      ],
      "stateMutability": "view",
      "type": "function"
    },
    {
      "inputs": [
        {
          "internalType": "string",
          "name": "name",
          "type": "string"
        },
        {
          "internalType": "string",
          "name": "imageURI",
          "type": "string"
        }
      ],
      "name": "mintIpfsNFT",
      "outputs": [],
      "stateMutability": "nonpayable",
      "type": "function"
    },
    {
      "inputs": [],
      "name": "name",
      "outputs": [
        {
          "internalType": "string",
          "name": "",
          "type": "string"
        }
      ],
      "stateMutability": "view",
      "type": "function"
    },
    {
      "inputs": [
        {
          "internalType": "uint256",
          "name": "tokenId",
          "type": "uint256"
        }
      ],
      "name": "ownerOf",
      "outputs": [
        {
          "internalType": "address",
          "name": "",
          "type": "address"
        }
      ],
      "stateMutability": "view",
      "type": "function"
    },
    {
      "inputs": [
        {
          "internalType": "address",
          "name": "from",
          "type": "address"
        },
        {
          "internalType": "address",
          "name": "to",
          "type": "address"
        },
        {
          "internalType": "uint256",
          "name": "tokenId",
          "type": "uint256"
        }
      ],
      "name": "safeTransferFrom",
      "outputs": [],
      "stateMutability": "nonpayable",
      "type": "function"
    },
    {
      "inputs": [
        {
          "internalType": "address",
          "name": "from",
          "type": "address"
        },
        {
          "internalType": "address",
          "name": "to",
          "type": "address"
        },
        {
          "internalType": "uint256",
          "name": "tokenId",
          "type": "uint256"
        },
        {
          "internalType": "bytes",
          "name": "data",
          "type": "bytes"
        }
      ],
      "name": "safeTransferFrom",
      "outputs": [],
      "stateMutability": "nonpayable",
      "type": "function"
    },
    {
      "inputs": [
        {
          "internalType": "address",
          "name": "operator",
          "type": "address"
        },
        {
          "internalType": "bool",
          "name": "approved",
          "type": "bool"
        }
      ],
      "name": "setApprovalForAll",
      "outputs": [],
      "stateMutability": "nonpayable",
      "type": "function"
    },
    {
      "inputs": [
        {
          "internalType": "bytes4",
          "name": "interfaceId",
          "type": "bytes4"
        }
      ],
      "name": "supportsInterface",
      "outputs": [
        {
          "internalType": "bool",
          "name": "",
          "type": "bool"
        }
      ],
      "stateMutability": "view",
      "type": "function"
    },
    {
      "inputs": [],
      "name": "symbol",
      "outputs": [
        {
          "internalType": "string",
          "name": "",
          "type": "string"
        }
      ],
      "stateMutability": "view",
      "type": "function"
    },
    {
      "inputs": [
        {
          "internalType": "uint256",
          "name": "_tokenId",
          "type": "uint256"
        }
      ],
      "name": "tokenURI",
      "outputs": [
        {
          "internalType": "string",
          "name": "",
          "type": "string"
        }
      ],
      "stateMutability": "view",
      "type": "function"
    },
    {
      "inputs": [
        {
          "internalType": "address",
          "name": "from",
          "type": "address"
        },
        {
          "internalType": "address",
          "name": "to",
          "type": "address"
        },
        {
          "internalType": "uint256",
          "name": "tokenId",
          "type": "uint256"
        }
      ],
      "name": "transferFrom",
      "outputs": [],
      "stateMutability": "nonpayable",
      "type": "function"
    }
  ],
  "bytecode": "0x60806040523480156200001157600080fd5b506040518060400160405280600381526020017f4e465400000000000000000000000000000000000000000000000000000000008152506040518060400160405280600381526020017f6e66740000000000000000000000000000000000000000000000000000000000815250816000908051906020019062000096929190620001cf565b508060019080519060200190620000af929190620001cf565b505050620000fd6040518060400160405280601881526020017f54686973206973206d79204e465420636f6e74726163742e00000000000000008152506200010360201b62000b3d1760201c565b620003ac565b620001a3816040516024016200011a919062000323565b6040516020818303038152906040527f41304fac000000000000000000000000000000000000000000000000000000007bffffffffffffffffffffffffffffffffffffffffffffffffffffffff19166020820180517bffffffffffffffffffffffffffffffffffffffffffffffffffffffff8381831617835250505050620001a660201b60201c565b50565b60008151905060006a636f6e736f6c652e6c6f679050602083016000808483855afa5050505050565b828054620001dd9062000376565b90600052602060002090601f0160209004810192826200020157600085556200024d565b82601f106200021c57805160ff19168380011785556200024d565b828001600101855582156200024d579182015b828111156200024c5782518255916020019190600101906200022f565b5b5090506200025c919062000260565b5090565b5b808211156200027b57600081600090555060010162000261565b5090565b600081519050919050565b600082825260208201905092915050565b60005b83811015620002bb5780820151818401526020810190506200029e565b83811115620002cb576000848401525b50505050565b6000601f19601f8301169050919050565b6000620002ef826200027f565b620002fb81856200028a565b93506200030d8185602086016200029b565b6200031881620002d1565b840191505092915050565b600060208201905081810360008301526200033f8184620002e2565b905092915050565b7f4e487b7100000000000000000000000000000000000000000000000000000000600052602260045260246000fd5b600060028204905060018216806200038f57607f821691505b60208210811415620003a657620003a562000347565b5b50919050565b612ed080620003bc6000396000f3fe608060405234801561001057600080fd5b50600436106100f55760003560e01c806367f718a911610097578063b88d4fde11610066578063b88d4fde14610284578063c87b56dd146102a0578063e985e9c5146102d0578063eb00195d14610300576100f5565b806367f718a9146101fc57806370a082311461021a57806395d89b411461024a578063a22cb46514610268576100f5565b8063095ea7b3116100d3578063095ea7b31461017857806323b872dd1461019457806342842e0e146101b05780636352211e146101cc576100f5565b806301ffc9a7146100fa57806306fdde031461012a578063081812fc14610148575b600080fd5b610114600480360381019061010f9190611b88565b61031c565b6040516101219190611bd0565b60405180910390f35b6101326103fe565b60405161013f9190611c84565b60405180910390f35b610162600480360381019061015d9190611cdc565b610490565b60405161016f9190611d4a565b60405180910390f35b610192600480360381019061018d9190611d91565b6104d6565b005b6101ae60048036038101906101a99190611dd1565b6105ee565b005b6101ca60048036038101906101c59190611dd1565b61064e565b005b6101e660048036038101906101e19190611cdc565b61066e565b6040516101f39190611d4a565b60405180910390f35b610204610720565b6040516102119190611e33565b60405180910390f35b610234600480360381019061022f9190611e4e565b610731565b6040516102419190611e33565b60405180910390f35b6102526107e9565b60405161025f9190611c84565b60405180910390f35b610282600480360381019061027d9190611ea7565b61087b565b005b61029e6004803603810190610299919061201c565b610891565b005b6102ba60048036038101906102b59190611cdc565b6108f3565b6040516102c79190611c84565b60405180910390f35b6102ea60048036038101906102e5919061209f565b6109a3565b6040516102f79190611bd0565b60405180910390f35b61031a60048036038101906103159190612180565b610a37565b005b60007f80ac58cd000000000000000000000000000000000000000000000000000000007bffffffffffffffffffffffffffffffffffffffffffffffffffffffff1916827bffffffffffffffffffffffffffffffffffffffffffffffffffffffff191614806103e757507f5b5e139f000000000000000000000000000000000000000000000000000000007bffffffffffffffffffffffffffffffffffffffffffffffffffffffff1916827bffffffffffffffffffffffffffffffffffffffffffffffffffffffff1916145b806103f757506103f682610bd6565b5b9050919050565b60606000805461040d90612227565b80601f016020809104026020016040519081016040528092919081815260200182805461043990612227565b80156104865780601f1061045b57610100808354040283529160200191610486565b820191906000526020600020905b81548152906001019060200180831161046957829003601f168201915b5050505050905090565b600061049b82610c40565b6004600083815260200190815260200160002060009054906101000a900473ffffffffffffffffffffffffffffffffffffffff169050919050565b60006104e18261066e565b90508073ffffffffffffffffffffffffffffffffffffffff168373ffffffffffffffffffffffffffffffffffffffff161415610552576040517f08c379a0000000000000000000000000000000000000000000000000000000008152600401610549906122cb565b60405180910390fd5b8073ffffffffffffffffffffffffffffffffffffffff16610571610c8b565b73ffffffffffffffffffffffffffffffffffffffff1614806105a0575061059f8161059a610c8b565b6109a3565b5b6105df576040517f08c379a00000000000000000000000000000000000000000000000000000000081526004016105d69061235d565b60405180910390fd5b6105e98383610c93565b505050565b6105ff6105f9610c8b565b82610d4c565b61063e576040517f08c379a0000000000000000000000000000000000000000000000000000000008152600401610635906123ef565b60405180910390fd5b610649838383610de1565b505050565b61066983838360405180602001604052806000815250610891565b505050565b6000806002600084815260200190815260200160002060009054906101000a900473ffffffffffffffffffffffffffffffffffffffff169050600073ffffffffffffffffffffffffffffffffffffffff168173ffffffffffffffffffffffffffffffffffffffff161415610717576040517f08c379a000000000000000000000000000000000000000000000000000000000815260040161070e9061245b565b60405180910390fd5b80915050919050565b600061072c6007611048565b905090565b60008073ffffffffffffffffffffffffffffffffffffffff168273ffffffffffffffffffffffffffffffffffffffff1614156107a2576040517f08c379a0000000000000000000000000000000000000000000000000000000008152600401610799906124ed565b60405180910390fd5b600360008373ffffffffffffffffffffffffffffffffffffffff1673ffffffffffffffffffffffffffffffffffffffff168152602001908152602001600020549050919050565b6060600180546107f890612227565b80601f016020809104026020016040519081016040528092919081815260200182805461082490612227565b80156108715780601f1061084657610100808354040283529160200191610871565b820191906000526020600020905b81548152906001019060200180831161085457829003601f168201915b5050505050905090565b61088d610886610c8b565b8383611056565b5050565b6108a261089c610c8b565b83610d4c565b6108e1576040517f08c379a00000000000000000000000000000000000000000000000000000000081526004016108d8906123ef565b60405180910390fd5b6108ed848484846111c3565b50505050565b606060006109736006848154811061090e5761090d61250d565b5b90600052602060002090600202016000016109288561121f565b6006868154811061093c5761093b61250d565b5b906000526020600020906002020160010160405160200161095f93929190612762565b604051602081830303815290604052611380565b9050600081604051602001610988919061280b565b60405160208183030381529060405290508092505050919050565b6000600560008473ffffffffffffffffffffffffffffffffffffffff1673ffffffffffffffffffffffffffffffffffffffff16815260200190815260200160002060008373ffffffffffffffffffffffffffffffffffffffff1673ffffffffffffffffffffffffffffffffffffffff16815260200190815260200160002060009054906101000a900460ff16905092915050565b6000610a436007611048565b9050610a4f3382611518565b600660405180604001604052808581526020018481525090806001815401808255809150506001900390600052602060002090600202016000909190919091506000820151816000019080519060200190610aab929190611a79565b506020820151816001019080519060200190610ac8929190611a79565b505050610aee604051806060016040528060258152602001612e36602591398233611536565b610af860076115d5565b7f721dcf09d65813de25914b85c0ccb68dc942592df0f1a1b3a1d197edcaba5127610b236007611048565b604051610b309190611e33565b60405180910390a1505050565b610bd381604051602401610b519190611c84565b6040516020818303038152906040527f41304fac000000000000000000000000000000000000000000000000000000007bffffffffffffffffffffffffffffffffffffffffffffffffffffffff19166020820180517bffffffffffffffffffffffffffffffffffffffffffffffffffffffff83818316178352505050506115eb565b50565b60007f01ffc9a7000000000000000000000000000000000000000000000000000000007bffffffffffffffffffffffffffffffffffffffffffffffffffffffff1916827bffffffffffffffffffffffffffffffffffffffffffffffffffffffff1916149050919050565b610c4981611614565b610c88576040517f08c379a0000000000000000000000000000000000000000000000000000000008152600401610c7f9061245b565b60405180910390fd5b50565b600033905090565b816004600083815260200190815260200160002060006101000a81548173ffffffffffffffffffffffffffffffffffffffff021916908373ffffffffffffffffffffffffffffffffffffffff160217905550808273ffffffffffffffffffffffffffffffffffffffff16610d068361066e565b73ffffffffffffffffffffffffffffffffffffffff167f8c5be1e5ebec7d5bd14f71427d1e84f3dd0314c0f7b2291e5b200ac8c7c3b92560405160405180910390a45050565b600080610d588361066e565b90508073ffffffffffffffffffffffffffffffffffffffff168473ffffffffffffffffffffffffffffffffffffffff161480610d9a5750610d9981856109a3565b5b80610dd857508373ffffffffffffffffffffffffffffffffffffffff16610dc084610490565b73ffffffffffffffffffffffffffffffffffffffff16145b91505092915050565b8273ffffffffffffffffffffffffffffffffffffffff16610e018261066e565b73ffffffffffffffffffffffffffffffffffffffff1614610e57576040517f08c379a0000000000000000000000000000000000000000000000000000000008152600401610e4e9061289f565b60405180910390fd5b600073ffffffffffffffffffffffffffffffffffffffff168273ffffffffffffffffffffffffffffffffffffffff161415610ec7576040517f08c379a0000000000000000000000000000000000000000000000000000000008152600401610ebe90612931565b60405180910390fd5b610ed2838383611680565b610edd600082610c93565b6001600360008573ffffffffffffffffffffffffffffffffffffffff1673ffffffffffffffffffffffffffffffffffffffff1681526020019081526020016000206000828254610f2d9190612980565b925050819055506001600360008473ffffffffffffffffffffffffffffffffffffffff1673ffffffffffffffffffffffffffffffffffffffff1681526020019081526020016000206000828254610f8491906129b4565b92505081905550816002600083815260200190815260200160002060006101000a81548173ffffffffffffffffffffffffffffffffffffffff021916908373ffffffffffffffffffffffffffffffffffffffff160217905550808273ffffffffffffffffffffffffffffffffffffffff168473ffffffffffffffffffffffffffffffffffffffff167fddf252ad1be2c89b69c2b068fc378daa952ba7f163c4a11628f55a4df523b3ef60405160405180910390a4611043838383611685565b505050565b600081600001549050919050565b8173ffffffffffffffffffffffffffffffffffffffff168373ffffffffffffffffffffffffffffffffffffffff1614156110c5576040517f08c379a00000000000000000000000000000000000000000000000000000000081526004016110bc90612a56565b60405180910390fd5b80600560008573ffffffffffffffffffffffffffffffffffffffff1673ffffffffffffffffffffffffffffffffffffffff16815260200190815260200160002060008473ffffffffffffffffffffffffffffffffffffffff1673ffffffffffffffffffffffffffffffffffffffff16815260200190815260200160002060006101000a81548160ff0219169083151502179055508173ffffffffffffffffffffffffffffffffffffffff168373ffffffffffffffffffffffffffffffffffffffff167f17307eab39ab6107e8899845ad3d59bd9653f200f220920489ca2b5937696c31836040516111b69190611bd0565b60405180910390a3505050565b6111ce848484610de1565b6111da8484848461168a565b611219576040517f08c379a000000000000000000000000000000000000000000000000000000000815260040161121090612ae8565b60405180910390fd5b50505050565b60606000821415611267576040518060400160405280600181526020017f3000000000000000000000000000000000000000000000000000000000000000815250905061137b565b600082905060005b6000821461129957808061128290612b08565b915050600a826112929190612b80565b915061126f565b60008167ffffffffffffffff8111156112b5576112b4611ef1565b5b6040519080825280601f01601f1916602001820160405280156112e75781602001600182028036833780820191505090505b5090505b60008514611374576001826113009190612980565b9150600a8561130f9190612bb1565b603061131b91906129b4565b60f81b8183815181106113315761133061250d565b5b60200101907effffffffffffffffffffffffffffffffffffffffffffffffffffffffffffff1916908160001a905350600a8561136d9190612b80565b94506112eb565b8093505050505b919050565b606060008251905060008114156113a95760405180602001604052806000815250915050611513565b600060036002836113ba91906129b4565b6113c49190612b80565b60046113d09190612be2565b905060006020826113e191906129b4565b67ffffffffffffffff8111156113fa576113f9611ef1565b5b6040519080825280601f01601f19166020018201604052801561142c5781602001600182028036833780820191505090505b5090506000604051806060016040528060408152602001612e5b604091399050600181016020830160005b868110156114d05760038101905062ffffff818a015116603f8160121c168401518060081b905060ff603f83600c1c1686015116810190508060081b905060ff603f8360061c1686015116810190508060081b905060ff603f831686015116810190508060e01b90508084526004840193505050611457565b5060038606600181146114ea57600281146114fa57611505565b613d3d60f01b6002830352611505565b603d60f81b60018303525b508484525050819450505050505b919050565b611532828260405180602001604052806000815250611821565b5050565b6115d083838360405160240161154e93929190612c3c565b6040516020818303038152906040527fe3849f79000000000000000000000000000000000000000000000000000000007bffffffffffffffffffffffffffffffffffffffffffffffffffffffff19166020820180517bffffffffffffffffffffffffffffffffffffffffffffffffffffffff83818316178352505050506115eb565b505050565b6001816000016000828254019250508190555050565b60008151905060006a636f6e736f6c652e6c6f679050602083016000808483855afa5050505050565b60008073ffffffffffffffffffffffffffffffffffffffff166002600084815260200190815260200160002060009054906101000a900473ffffffffffffffffffffffffffffffffffffffff1673ffffffffffffffffffffffffffffffffffffffff1614159050919050565b505050565b505050565b60006116ab8473ffffffffffffffffffffffffffffffffffffffff1661187c565b15611814578373ffffffffffffffffffffffffffffffffffffffff1663150b7a026116d4610c8b565b8786866040518563ffffffff1660e01b81526004016116f69493929190612ccf565b602060405180830381600087803b15801561171057600080fd5b505af192505050801561174157506040513d601f19601f8201168201806040525081019061173e9190612d30565b60015b6117c4573d8060008114611771576040519150601f19603f3d011682016040523d82523d6000602084013e611776565b606091505b506000815114156117bc576040517f08c379a00000000000000000000000000000000000000000000000000000000081526004016117b390612ae8565b60405180910390fd5b805181602001fd5b63150b7a0260e01b7bffffffffffffffffffffffffffffffffffffffffffffffffffffffff1916817bffffffffffffffffffffffffffffffffffffffffffffffffffffffff191614915050611819565b600190505b949350505050565b61182b838361189f565b611838600084848461168a565b611877576040517f08c379a000000000000000000000000000000000000000000000000000000000815260040161186e90612ae8565b60405180910390fd5b505050565b6000808273ffffffffffffffffffffffffffffffffffffffff163b119050919050565b600073ffffffffffffffffffffffffffffffffffffffff168273ffffffffffffffffffffffffffffffffffffffff16141561190f576040517f08c379a000000000000000000000000000000000000000000000000000000000815260040161190690612da9565b60405180910390fd5b61191881611614565b15611958576040517f08c379a000000000000000000000000000000000000000000000000000000000815260040161194f90612e15565b60405180910390fd5b61196460008383611680565b6001600360008473ffffffffffffffffffffffffffffffffffffffff1673ffffffffffffffffffffffffffffffffffffffff16815260200190815260200160002060008282546119b491906129b4565b92505081905550816002600083815260200190815260200160002060006101000a81548173ffffffffffffffffffffffffffffffffffffffff021916908373ffffffffffffffffffffffffffffffffffffffff160217905550808273ffffffffffffffffffffffffffffffffffffffff16600073ffffffffffffffffffffffffffffffffffffffff167fddf252ad1be2c89b69c2b068fc378daa952ba7f163c4a11628f55a4df523b3ef60405160405180910390a4611a7560008383611685565b5050565b828054611a8590612227565b90600052602060002090601f016020900481019282611aa75760008555611aee565b82601f10611ac057805160ff1916838001178555611aee565b82800160010185558215611aee579182015b82811115611aed578251825591602001919060010190611ad2565b5b509050611afb9190611aff565b5090565b5b80821115611b18576000816000905550600101611b00565b5090565b6000604051905090565b600080fd5b600080fd5b60007fffffffff0000000000000000000000000000000000000000000000000000000082169050919050565b611b6581611b30565b8114611b7057600080fd5b50565b600081359050611b8281611b5c565b92915050565b600060208284031215611b9e57611b9d611b26565b5b6000611bac84828501611b73565b91505092915050565b60008115159050919050565b611bca81611bb5565b82525050565b6000602082019050611be56000830184611bc1565b92915050565b600081519050919050565b600082825260208201905092915050565b60005b83811015611c25578082015181840152602081019050611c0a565b83811115611c34576000848401525b50505050565b6000601f19601f8301169050919050565b6000611c5682611beb565b611c608185611bf6565b9350611c70818560208601611c07565b611c7981611c3a565b840191505092915050565b60006020820190508181036000830152611c9e8184611c4b565b905092915050565b6000819050919050565b611cb981611ca6565b8114611cc457600080fd5b50565b600081359050611cd681611cb0565b92915050565b600060208284031215611cf257611cf1611b26565b5b6000611d0084828501611cc7565b91505092915050565b600073ffffffffffffffffffffffffffffffffffffffff82169050919050565b6000611d3482611d09565b9050919050565b611d4481611d29565b82525050565b6000602082019050611d5f6000830184611d3b565b92915050565b611d6e81611d29565b8114611d7957600080fd5b50565b600081359050611d8b81611d65565b92915050565b60008060408385031215611da857611da7611b26565b5b6000611db685828601611d7c565b9250506020611dc785828601611cc7565b9150509250929050565b600080600060608486031215611dea57611de9611b26565b5b6000611df886828701611d7c565b9350506020611e0986828701611d7c565b9250506040611e1a86828701611cc7565b9150509250925092565b611e2d81611ca6565b82525050565b6000602082019050611e486000830184611e24565b92915050565b600060208284031215611e6457611e63611b26565b5b6000611e7284828501611d7c565b91505092915050565b611e8481611bb5565b8114611e8f57600080fd5b50565b600081359050611ea181611e7b565b92915050565b60008060408385031215611ebe57611ebd611b26565b5b6000611ecc85828601611d7c565b9250506020611edd85828601611e92565b9150509250929050565b600080fd5b600080fd5b7f4e487b7100000000000000000000000000000000000000000000000000000000600052604160045260246000fd5b611f2982611c3a565b810181811067ffffffffffffffff82111715611f4857611f47611ef1565b5b80604052505050565b6000611f5b611b1c565b9050611f678282611f20565b919050565b600067ffffffffffffffff821115611f8757611f86611ef1565b5b611f9082611c3a565b9050602081019050919050565b82818337600083830152505050565b6000611fbf611fba84611f6c565b611f51565b905082815260208101848484011115611fdb57611fda611eec565b5b611fe6848285611f9d565b509392505050565b600082601f83011261200357612002611ee7565b5b8135612013848260208601611fac565b91505092915050565b6000806000806080858703121561203657612035611b26565b5b600061204487828801611d7c565b945050602061205587828801611d7c565b935050604061206687828801611cc7565b925050606085013567ffffffffffffffff81111561208757612086611b2b565b5b61209387828801611fee565b91505092959194509250565b600080604083850312156120b6576120b5611b26565b5b60006120c485828601611d7c565b92505060206120d585828601611d7c565b9150509250929050565b600067ffffffffffffffff8211156120fa576120f9611ef1565b5b61210382611c3a565b9050602081019050919050565b600061212361211e846120df565b611f51565b90508281526020810184848401111561213f5761213e611eec565b5b61214a848285611f9d565b509392505050565b600082601f83011261216757612166611ee7565b5b8135612177848260208601612110565b91505092915050565b6000806040838503121561219757612196611b26565b5b600083013567ffffffffffffffff8111156121b5576121b4611b2b565b5b6121c185828601612152565b925050602083013567ffffffffffffffff8111156121e2576121e1611b2b565b5b6121ee85828601612152565b9150509250929050565b7f4e487b7100000000000000000000000000000000000000000000000000000000600052602260045260246000fd5b6000600282049050600182168061223f57607f821691505b60208210811415612253576122526121f8565b5b50919050565b7f4552433732313a20617070726f76616c20746f2063757272656e74206f776e6560008201527f7200000000000000000000000000000000000000000000000000000000000000602082015250565b60006122b5602183611bf6565b91506122c082612259565b604082019050919050565b600060208201905081810360008301526122e4816122a8565b9050919050565b7f4552433732313a20617070726f76652063616c6c6572206973206e6f7420746f60008201527f6b656e206f776e6572206e6f7220617070726f76656420666f7220616c6c0000602082015250565b6000612347603e83611bf6565b9150612352826122eb565b604082019050919050565b600060208201905081810360008301526123768161233a565b9050919050565b7f4552433732313a2063616c6c6572206973206e6f7420746f6b656e206f776e6560008201527f72206e6f7220617070726f766564000000000000000000000000000000000000602082015250565b60006123d9602e83611bf6565b91506123e48261237d565b604082019050919050565b60006020820190508181036000830152612408816123cc565b9050919050565b7f4552433732313a20696e76616c696420746f6b656e2049440000000000000000600082015250565b6000612445601883611bf6565b91506124508261240f565b602082019050919050565b6000602082019050818103600083015261247481612438565b9050919050565b7f4552433732313a2061646472657373207a65726f206973206e6f74206120766160008201527f6c6964206f776e65720000000000000000000000000000000000000000000000602082015250565b60006124d7602983611bf6565b91506124e28261247b565b604082019050919050565b60006020820190508181036000830152612506816124ca565b9050919050565b7f4e487b7100000000000000000000000000000000000000000000000000000000600052603260045260246000fd5b600081905092915050565b7f7b226e616d65223a202200000000000000000000000000000000000000000000600082015250565b600061257d600a8361253c565b915061258882612547565b600a82019050919050565b60008190508160005260206000209050919050565b600081546125b581612227565b6125bf818661253c565b945060018216600081146125da57600181146125eb5761261e565b60ff1983168652818601935061261e565b6125f485612593565b60005b83811015612616578154818901526001820191506020810190506125f7565b838801955050505b50505092915050565b7f202d2d204e465420233a20000000000000000000000000000000000000000000600082015250565b600061265d600b8361253c565b915061266882612627565b600b82019050919050565b600061267e82611beb565b612688818561253c565b9350612698818560208601611c07565b80840191505092915050565b7f222c20226465736372697074696f6e223a2022416e2065706963204e4654222c60008201527f2022696d616765223a2022697066733a2f2f0000000000000000000000000000602082015250565b600061270060328361253c565b915061270b826126a4565b603282019050919050565b7f227d000000000000000000000000000000000000000000000000000000000000600082015250565b600061274c60028361253c565b915061275782612716565b600282019050919050565b600061276d82612570565b915061277982866125a8565b915061278482612650565b91506127908285612673565b915061279b826126f3565b91506127a782846125a8565b91506127b28261273f565b9150819050949350505050565b7f646174613a6170706c69636174696f6e2f6a736f6e3b6261736536342c000000600082015250565b60006127f5601d8361253c565b9150612800826127bf565b601d82019050919050565b6000612816826127e8565b91506128228284612673565b915081905092915050565b7f4552433732313a207472616e736665722066726f6d20696e636f72726563742060008201527f6f776e6572000000000000000000000000000000000000000000000000000000602082015250565b6000612889602583611bf6565b91506128948261282d565b604082019050919050565b600060208201905081810360008301526128b88161287c565b9050919050565b7f4552433732313a207472616e7366657220746f20746865207a65726f2061646460008201527f7265737300000000000000000000000000000000000000000000000000000000602082015250565b600061291b602483611bf6565b9150612926826128bf565b604082019050919050565b6000602082019050818103600083015261294a8161290e565b9050919050565b7f4e487b7100000000000000000000000000000000000000000000000000000000600052601160045260246000fd5b600061298b82611ca6565b915061299683611ca6565b9250828210156129a9576129a8612951565b5b828203905092915050565b60006129bf82611ca6565b91506129ca83611ca6565b9250827fffffffffffffffffffffffffffffffffffffffffffffffffffffffffffffffff038211156129ff576129fe612951565b5b828201905092915050565b7f4552433732313a20617070726f766520746f2063616c6c657200000000000000600082015250565b6000612a40601983611bf6565b9150612a4b82612a0a565b602082019050919050565b60006020820190508181036000830152612a6f81612a33565b9050919050565b7f4552433732313a207472616e7366657220746f206e6f6e20455243373231526560008201527f63656976657220696d706c656d656e7465720000000000000000000000000000602082015250565b6000612ad2603283611bf6565b9150612add82612a76565b604082019050919050565b60006020820190508181036000830152612b0181612ac5565b9050919050565b6000612b1382611ca6565b91507fffffffffffffffffffffffffffffffffffffffffffffffffffffffffffffffff821415612b4657612b45612951565b5b600182019050919050565b7f4e487b7100000000000000000000000000000000000000000000000000000000600052601260045260246000fd5b6000612b8b82611ca6565b9150612b9683611ca6565b925082612ba657612ba5612b51565b5b828204905092915050565b6000612bbc82611ca6565b9150612bc783611ca6565b925082612bd757612bd6612b51565b5b828206905092915050565b6000612bed82611ca6565b9150612bf883611ca6565b9250817fffffffffffffffffffffffffffffffffffffffffffffffffffffffffffffffff0483118215151615612c3157612c30612951565b5b828202905092915050565b60006060820190508181036000830152612c568186611c4b565b9050612c656020830185611e24565b612c726040830184611d3b565b949350505050565b600081519050919050565b600082825260208201905092915050565b6000612ca182612c7a565b612cab8185612c85565b9350612cbb818560208601611c07565b612cc481611c3a565b840191505092915050565b6000608082019050612ce46000830187611d3b565b612cf16020830186611d3b565b612cfe6040830185611e24565b8181036060830152612d108184612c96565b905095945050505050565b600081519050612d2a81611b5c565b92915050565b600060208284031215612d4657612d45611b26565b5b6000612d5484828501612d1b565b91505092915050565b7f4552433732313a206d696e7420746f20746865207a65726f2061646472657373600082015250565b6000612d93602083611bf6565b9150612d9e82612d5d565b602082019050919050565b60006020820190508181036000830152612dc281612d86565b9050919050565b7f4552433732313a20746f6b656e20616c7265616479206d696e74656400000000600082015250565b6000612dff601c83611bf6565b9150612e0a82612dc9565b602082019050919050565b60006020820190508181036000830152612e2e81612df2565b905091905056fe416e204e465420772f20494420257320686173206265656e206d696e74656420746f2025734142434445464748494a4b4c4d4e4f505152535455565758595a6162636465666768696a6b6c6d6e6f707172737475767778797a303132333435363738392b2fa264697066735822122060109f7e42d458efe7e5f82bbdcd5bdda07f99169e7087c39e1808dd031e4cbd64736f6c63430008090033",
  "linkReferences": {},
  "deployedLinkReferences": {}
}